:020000040800F2
:1000000000180020C90100080B1800081517000887
:10001000091800082F0300089B34000800000000A6
:10002000000000000000000000000000231B00088A
:100030007503000800000000211B0008251B0008B4
:10004000E3010008E3010008E3010008E301000800
:10005000E3010008E3010008E3010008E3010008F0
:10006000E3010008E3010008E3010008E3010008E0
:10007000E3010008E3010008E3010008E3010008D0
:10008000E3010008E3010008E3010008E3010008C0
:1000900025340008E3010008E3010008E30100083B
:1000A000E3010008E3010008E3010008E3010008A0
:1000B000E3010008E3010008E3010008E301000890
:1000C000E3010008E3010008E3010008E301000880
:1000D000E3010008E3010008E3010008E301000870
:1000E000E3010008E3010008E301000800F002F862
:1000F00000F05AF80AA090E8000C82448344AAF168
:100100000107DA4501D100F04FF8AFF2090EBAE865
:100110000F0013F0010F18BFFB1A43F0010318473B
:10012000D4330000F43300000A444FF0000C10F800
:10013000013B13F0070408BF10F8014B1D1108BF65
:1001400010F8015B641E05D010F8016B641E01F805
:10015000016BF9D113F0080F1EBF10F8014BAD1C55
:100160000C1B09D16D1E58BF01F801CBFAD505E073
:1001700014F8016B01F8016B6D1EF9D59142D6D3CD
:10018000704700000023002400250026103A28BFF5
:1001900078C1FBD8520728BF30C148BF0B607047F9
:1001A0001FB51FBD10B510BD00F088F81146FFF750
:1001B000F7FF03F083F900F0A6F803B4FFF7F2FFAE
:1001C00003BC00F0ADF8000009488047094800472B
:1001D000FEE7FEE7FEE7FEE7FEE7FEE7FEE7FEE7F7
:1001E000FEE7FEE704480549034A054B7047000057
:1001F0009F1B0008ED0000080014002000180020DC
:100200000014002010B5203AC0F00B80B1E818505F
:10021000203AA0E81850B1E81850A0E81850BFF4F0
:10022000F5AF5FEA027C24BFB1E81850A0E818508F
:1002300044BF18C918C0BDE810405FEA827C24BFE3
:1002400051F8043B40F8043B08BF7047D20728BF71
:1002500031F8023B48BF11F8012B28BF20F8023BC0
:1002600048BF00F8012B70474FF0000200B513465D
:1002700094469646203922BFA0E80C50A0E80C50C6
:10028000B1F12001BFF4F7AF090728BFA0E80C5077
:1002900048BF0CC05DF804EB890028BF40F8042B70
:1002A00008BF704748BF20F8022B11F0804F18BFDD
:1002B00000F8012B7047704770477047754600F093
:1002C0002BF8AE4605006946534620F007008546E8
:1002D00018B020B5FFF786FFBDE820404FF00006BC
:1002E0004FF000074FF000084FF0000B21F007011E
:1002F000AC46ACE8C009ACE8C009ACE8C009ACE861
:10030000C0098D46704710B50446AFF30080204603
:10031000BDE81040FFF751BF00487047A013002010
:1003200001491820ABBEFEE7260002007047FEE739
:10033000002070470020704710B50022044905488E
:1003400001F07CFD0449034801F072FD002010BD5E
:10035000AC0A002000020020C406002010B50146AF
:10036000034801F065FD024801F046FD002010BD84
:1003700000020020704772B6FEE700002DE9F84F3A
:10038000DFF8B891002409F1040A0AF1040B2346AE
:100390000F270BF1040EC9E00125A5402A40AA420F
:1003A0007DD1674ED1F804C0ACEB0608B44532D01D
:1003B00014DCBCF1030F3AD009DCBCF1000F2AD0E9
:1003C000BCF1010F1CD0BCF1020F31D11DE0BCF11A
:1003D000110F17D0BCF1120F2AD119E0B8F5881F00
:1003E00019D006DCB8F5803F15D0B8F5801F1FD1B5
:1003F00011E0B8F5001F0ED0B8F5041F18D10AE0BF
:10040000CB6815E0CB681B1D12E0CB6808330FE00A
:10041000CB680C330CE08B682BB1012B4FF0080339
:1004200003D0456104E0042302E0056100E00023FD
:10043000FF2A01D8064601E000F104064FEA8405D0
:1004400001D9A5F12005D6F8008007FA05FC28EAB5
:100450000C0803FA05F548EA0508C6F800804D685F
:10046000ED0062D5374DAE6946F00106AE61AD696B
:1004700024F0030605F001050095334D06EB050C4D
:10048000DCF80850A607360F07FA06F825EA080533
:10049000DFF8B880404503D14FF0000817E044E092
:1004A000DFF8AC80404502D14FF001080FE0DFF8E3
:1004B000A480404502D14FF0020808E0DFF89880A0
:1004C000404502D14FF0030801E04FF0040808FA5C
:1004D00006F848EA0508CCF808804D68D9F80060AD
:1004E000ED034D4601D5164300E096432E604D685E
:1004F000DAF80060AD03554601D5164300E0964397
:100500002E604D68DBF80060ED025D4601D51643B4
:1005100000E096432E604D68DEF80060AD0275463F
:1005200001D5164300E096432E60641C0D682A46F0
:10053000E5407FF431AFBDE8F88F000000040140D2
:1005400000001110001002400000014000080140AE
:10055000000C014000100140001401400148806877
:100560007047000020010020024881680278114491
:100570008160704720010020074810B5016841F0F4
:1005800010010160032000F075F80F2000F006F85C
:1005900000F024F8002010BD0020024070B50D4D81
:1005A00004464FF47A712878B1FBF0F00A490968E3
:1005B000B1FBF0F001F030F848B9102C07D200225E
:1005C0002146501E00F036F800206C6070BD0120FE
:1005D00070BD0000200100202C0100200C4808B54F
:1005E000816941F001018161816901F0010100919E
:1005F000C16941F08051C161C06900F08050009034
:100600000448416821F0E06141F00071416008BD9B
:100610000010024000000140002809DB00F01F022A
:10062000012191404009800000F1E020C0F8001154
:1006300070470000F0B40E4B1B680C46C3F3022356
:10064000C3F10705042D00D90425191D072901D27E
:10065000002300E0DB1E012606FA05F1491E2140B9
:1006600099409E40761E16403143F0BC02F016BF02
:100670000CED00E0064900F0070208684FF6FF03A2
:10068000184040EA0220034A104308607047000007
:100690000CED00E00000FA0510B50C0607D501F0DE
:1006A000070101EB810100EBC100283005E001EBFF
:1006B000810100EBC10000F5B47099B232B10122A2
:1006C00002730181190C4181002010BD00220273C8
:1006D000C180F9E7704701EB810200EBC202D0F85C
:1006E000E802D26B01F0A9BD01EB810200EBC2026E
:1006F000D0F8E802D2F87C2101F002BE70B50446C1
:100700000B0601F0070000EB800104EBC1014FF084
:1007100001024FF0000503D581F82920283103E0BC
:1007200081F8695101F5B471087094F8A8020128A4
:1007300008D084F8A822206802F072FA84F8A8523F
:10074000002070BD022070BD70B5044601F00F009E
:100750006268904201D9012070BD0B0601F00700CC
:1007600000EB800104EBC1014FF001024FF00005E6
:1007700003D581F82920283103E081F8695101F57A
:10078000B4718D70087094F8A802012808D084F81C
:10079000A822206802F0E1FA84F8A852002070BD77
:1007A000022070BD2DE9F05F04685FEA424C0B78CF
:1007B0008D69B4F850C04FF000064BF68F7948F2BF
:1007C000800A48F68F7B48F2C00E4FF480672AD526
:1007D0004FF0020808EBC308C44407EB4C07E45B86
:1007E000C4F30904A54203D32D1B8D6101D00BE096
:1007F0008E61066836F8235005EA090585F4005530
:1008000045EA0A0526F82350520609D50D780368F3
:1008100033F8252002EA0B0242EA0E0223F82520D3
:1008200084B30A8929E04FF0060808EBC308C444E2
:1008300007EB4C07E45BC4F30904A54203D32D1B6B
:100840008D6101D00BE08E61066836F8235005EA11
:10085000090585F4005545EA0A0526F82350520695
:1008600009D40B78056835F8232002EA0B0242EA26
:100870000E0225F823202CB14A89496900682346D5
:1008800002F0DAFD2046BDE8F09F2DE9F05F054655
:1008900000680C465FEA426C16468B692278B0F815
:1008A00050C048F68F774CF280094FF6FF7B4FF42B
:1008B000004E4FF4806A4FF000017BD54FF00208E4
:1008C00008EBC208E0440AEB480C30F80C00C0F317
:1008D0000900834211D91B1AA3610FD0730407D5F5
:1008E0002E6836F822303B4043EA090326F82230CE
:1008F00094F82420012A50D04EE1A161607810B113
:10090000012813D01AE02868B0F85030184400EBE2
:100910000210B0F8042422F4F842A0F80424B0F83D
:10092000042442F40042A0F8042407E02868B0F848
:100930005030184400EB0210A0F8041462782868C4
:1009400012B1012A11D018E0B0F8501008442178F3
:1009500000EB0110B0F80C1421F4F841A0F80C14CD
:10096000B0F80C1441F4004105E0B0F850201044F8
:10097000227800EB0210A0F80C1421782846FFF72B
:10098000AAFE7004B8D521782A6832F821003840D0
:1009900040EA090022F82100FEE062690244626137
:1009A000E2690244E2612369226A9A4203D318464B
:1009B000111A04E038E084F824100AB110462162CC
:1009C000617811B1012923D02BE02968B1F85020BA
:1009D0001144227801EB021101F2044148B13E2892
:1009E0000FD84208C30700D0521C0BEA82220A80AB
:1009F00017E00A8822F4F8420A800A8842F400428A
:100A0000F5E74209C30600D1521E4EEA8222EEE704
:100A10002968B1F850201144227801EB0211A1F8A5
:100A2000040483B22289B3E04FF0060808EBC20841
:100A3000E0440AEB480C30F80C00C0F30900834294
:100A400011D31B1AA3610FD0730407D42E6836F894
:100A500022303B4043EA090326F8223094F8242050
:100A6000012A50D098E0A161607810B1012813D01C
:100A70001AE02868B0F85030184400EB0210B0F8C3
:100A8000042422F4F842A0F80424B0F8042442F428
:100A90000042A0F8042407E02868B0F85030184459
:100AA00000EB0210A0F804146278286812B1012A41
:100AB00011D018E0B0F850100844217800EB011074
:100AC000B0F80C1421F4F841A0F80C14B0F80C1490
:100AD00041F4004105E0B0F850201044227800EBCA
:100AE0000210A0F80C1421782846FFF7F4FD7004DA
:100AF00052D42278296831F82200384040EA0900AF
:100B000021F8220048E0626902446261E26902441D
:100B1000E2612369226A9A4203D31846111A2162BC
:100B200004E00AB11046216284F824106278296832
:100B300012B1012A22D029E0B1F8502011442278C4
:100B400001EB021101F20C4148B13E280FD84208D6
:100B5000C30700D0521C0BEA82220A8016E00A88E2
:100B600022F4F8420A800A8842F40042F5E742097A
:100B7000C30600D1521E4EEA8222EEE7B1F85020A1
:100B80001144227801EB0211A1F80C04628983B2AE
:100B90006169286802F06EFC21782A6832F8210029
:100BA00048F6BF73184080F0300048F280031843C5
:100BB00022F821000020BDE8F09F01F0070101EBC1
:100BC000810100EBC100D0F8840170472DE9F041AC
:100BD00004460F0601F0070000EB800104EBC101A1
:100BE0004FF001064FF0000503D581F82960283148
:100BF00003E081F8695101F5B47108700A61CB70A6
:100C00004A7802B1C881022B00D10D7194F8A80274
:100C1000012809D084F8A862206801F0D3FE284694
:100C200084F8A852BDE8F0810220FBE770B50C46BD
:100C300001F0070505EB850100EBC101C1E95F2368
:100C40000022C1F8842181F8692181F8685101F5F9
:100C5000B4716207006802F0D5F8002070BD70B56D
:100C600004460D4601F007006168884201D9012061
:100C700070BD29064FF000064FF0010207D500EBCA
:100C8000800104EBC10181F82920283107E005EB40
:100C9000850104EBC10181F8696101F5B4718A70C5
:100CA000087094F8A802012807D084F8A8222068C8
:100CB00002F08FF8680702D006E0022070BD04F54C
:100CC0002C71206802F047F884F8A862002070BDFB
:100CD00070B50C4601F0070505EB850100EBC1017D
:100CE000C1E90F23012281F84C208B6400234B645F
:100CF00081F8292001F8285F6207006802F082F875
:100D0000002070BD1FB50446006802F091FB00048E
:100D100002D5204600F07AFD206802F089FB4005EC
:100D20000CD5206830F8441F21F4806101802046F2
:100D300000F01EF90021204600F035F9206802F08D
:100D400077FB400405D5206830F8441F21F480412A
:100D50000180206802F06CFB800405D5206830F823
:100D6000441F21F400510180206802F061FBC0049F
:100D700014D5206830F8401F21F00401018020685C
:100D800030F8401F21F008010180204600F003F9EF
:100D9000206830F8441F21F480510180206802F05F
:100DA00047FB00053ED522680020694632F8203016
:100DB00021F81030401CC0B20828F7D332F8400F99
:100DC00040F001001080206830F8402F22F001022E
:100DD00002802068B0F844205205FBD530F8442F3B
:100DE00022F4806202800020236831F8102023F86A
:100DF0002020401CC0B20828F6D3206830F8401FDD
:100E000041F008010180206830F8441F21F400619E
:100E10000180206830F8401F41F004010180204625
:100E200000F0F6F8206802F003FB800508D5206882
:100E300030F8441F21F400710180204600F0AFF823
:100E4000206802F0F5FAC00505D5206830F8441F87
:100E500021F4807101801FBD2DE9F04186B00400AE
:100E600004D094F8A902002520B108E0012006B0C2
:100E7000BDE8F08184F8A852204600F05BF803201A
:100E800084F8A902206801F05FFF04F11001142228
:100E900088466846FFF7B6F994E80F0001F0BEFEF9
:100EA0000226D0BB0021206802F0DCFA00200127D6
:100EB0000FE000BF00EB800104EBC10181F8297055
:100EC00001F8280FC881CD700D614D61401CC0B282
:100ED0008D6161688142EDD8002011E000EB800156
:100EE00004EBC10181F8695181F8680181F86B5107
:100EF000C1F87851C1F87C51401CC0B2C1F8805192
:100F000061688142EAD8142241466846FFF77AF9BF
:100F100094E80F0001F00FFF10B184F8A962A5E773
:100F200084F8245084F8A972206801F002FF0020A0
:100F30009DE7000008B500680B49884212D10B48B4
:100F4000C16941F40001C161C069002200F40000E0
:100F5000009011461420FFF76DFBBDE808401420F7
:100F6000FFF75ABB08BD0000005C004000100240C3
:100F700070B5044680680125022801D0FFF7FBF90F
:100F80002946D4F8E80201F0A4FAD4F8E802BDE852
:100F9000704001F060BAD0F8E80201F084BAD0F8ED
:100FA000E80201F08ABA10B5044690F8A8020128B8
:100FB0000BD0012084F8A80284F82410206802F0E5
:100FC00053FA002084F8A80210BD022010BDD0F80A
:100FD000E82200F52C71104601F087BA10B50446DE
:100FE00090F8A802012810D0012084F8A8022068F7
:100FF00002F00EFA01212046FFF76CFB206801F099
:1010000096FE002084F8A80210BD022010BD00004A
:1010100010B50446D0F8E80201F0A6FAA06900284D
:1010200004D00348016841F00601016010BD0000D2
:1010300010ED00E02DE9F84305460078354CC00777
:1010400054D0E0690026C00008D4E06940F0805028
:10105000E061E069012600F0805000902E480168B0
:10106000C90512D40168804641F480710160FFF720
:1010700075FA074605E000BFFFF770FAC01B642849
:1010800023D8D8F80000C005F6D5206A10F44070C7
:1010900021D0A98801F4407181421CD0206A1F49E7
:1010A000012220F440700A6000220A602062C0071A
:1010B00011D0FFF753FA074641F2883808E000BF25
:1010C000FFF74CFAC11B414502D90320BDE8F88364
:1010D000206A8007F4D5206A696820F440700843CC
:1010E00020621EB1E06920F08050E061287880071E
:1010F00005D56068A96820F44040084360602878FE
:10110000C00605D56068E96820F480000843606087
:101110000020DBE700100240007000404004424223
:101120002DE9F0470F46050061D0434E306800F0CE
:101130000700B84209D2306820F007003843306019
:10114000306800F00700B84251D128683B4C810755
:1011500012D5400703D5606840F4E06060602878ED
:10116000000703D5606840F4605060606068A9685B
:1011700020F0F000084360602878C00728D0686835
:10118000012810D02168022810D0890700292EDA02
:10119000616821F0030101436160FFF7DFF98046D8
:1011A00041F288390DE021688903EFE78901EDE715
:1011B000FFF7D4F9A0EB0801494502D90320BDE8A7
:1011C000F0876068696800F00C00B0EB810FEFD128
:1011D000306800F00700B8420BD9306820F00700F3
:1011E00038433060306800F00700B84201D0012079
:1011F000E5E72878400705D56068E96820F4E060F5
:10120000084360602878000706D56068296920F4E3
:10121000605040EAC100606000F038F86168084A38
:10122000C1F30311515CC8400649086006480068D4
:10123000FFF7B4F90020C2E700200240001002408E
:10124000DA3400082C01002024010020044805495C
:1012500000684968044AC1F30221515CC8407047E4
:101260002C01002000100240EA340008044805491F
:1012700000684968044AC1F3C221515CC840704704
:101280002C01002000100240EA34000812A185B0B1
:101290000FC98DE80F0014A0144A0068049051682B
:1012A000134801F00C03042B10D0082B0ED1C1F30E
:1012B0008343C9031DF803000AD5516804AAC1F38A
:1012C0004041515C0A4A5043B0FBF1F005B0704711
:1012D00008494843FAE70000020304050607080925
:1012E0000A0B0C0D0E0F101001020000001002403E
:1012F00000127A0000093D002DE9F84F040070D07B
:101300002078C04DC00749D06868C0F3810001282B
:1013100007D06868C0F38100022809D16868C0035B
:1013200006D52868800339D560680028E7D035E005
:101330006068B0F5803F0BD010B1B0F5A02F11D090
:10134000286820F480302860286820F4802002E09B
:10135000286840F480302860606890B1FFF7FEF89C
:1013600006460AE0286840F480202860F0E700BFC5
:10137000FFF7F4F8801B642873D828688003F7D53A
:101380000CE0FFF7EBF8064605E000BFFFF7E6F8D4
:10139000801B6428F0D828688003F7D420789A4E00
:1013A00080074FF001094FF0000839D5686810F048
:1013B0000C0F07D06868C0F38100022809D1686863
:1013C000C00306D42868800714D52069012808D1F5
:1013D00010E02069B0B1C6F80090FFF7BFF80746EB
:1013E00005E00AE1FFF7BAF8C01B0228C4D8286854
:1013F0008007F7D52868616920F0F80040EAC1004D
:1014000028600DE0C6F80080FFF7A8F8074604E062
:10141000FFF7A4F8C01B022823D828688007F7D458
:10142000207800072CD57948A169D9B1C0F800907F
:10143000FFF794F8074604E0FFF790F8C01B022876
:101440000FD8686A8007F7D571484FF4FA510068E1
:10145000B0FBF1F0009000BF0098411E0091FAD25D
:101460000EE080E0C0F80080FFF778F8074604E05F
:10147000FFF774F8C01B022875D8686A8007F7D494
:101480002078400760D5E8690027C00008D4E869E3
:1014900040F08050E861E869012700F0805000903A
:1014A0005C480168C90513D40168834641F4807122
:1014B0000160FFF753F8824606E000BFFFF74EF8E1
:1014C000A0EB0A0064284ED8DBF80000C005F5D573
:1014D000E06801280AD008B1052813D0286A20F056
:1014E00001002862286A20F0040002E0286A40F027
:1014F00001002862E06841F2883B98B1FFF72EF8BE
:1015000082460BE0286A40F004002862EEE700BF44
:10151000FFF724F8A0EB0A0159455AD8286A80073A
:10152000F6D50CE0FFF71AF8824605E0FFF716F84B
:10153000A0EB0A0159454CD8286A8007F6D41FB1A0
:10154000E86920F08050E861E06988B36968C1F318
:101550008101022944D00228C6F8608004D0FEF739
:10156000FDFF044638E034E0FEF7F8FF074604E0EC
:10157000FEF7F4FFC01B02282BD828688001F7D49F
:10158000206AB0F5803F05D16868A16820F400307A
:1015900008436860D4E908010843696821F47411BC
:1015A00008436860C6F86090FEF7D8FF044606E07E
:1015B00025E000BFFEF7D2FF001B022809D82868EB
:1015C0008001F7D51BE000BFFEF7C8FF001B022813
:1015D00002D90320BDE8F88F28688001F4D40EE01A
:1015E0000128F7D06868226A00F48031914204D162
:1015F000616A00F47010884201D00120EAE70020FF
:10160000E8E700000010024000004242800442422D
:101610002C0100200070004010B5401EB0F1807F0A
:1016200001D3012010BD4FF0E02460610F2160174D
:1016300001F034FF0020A06107202061002010BDD0
:1016400070B5040004D094F83D00002510B106E008
:10165000012070BD84F83C50204600F023F824207F
:1016600084F83D002068C16821F40051C160204623
:1016700000F096FA2068016921F490410161206828
:10168000416921F02A0141612068C16841F400519B
:10169000C1602564202084F83D0084F83E000020CD
:1016A00070BD000030B585B0002400940194029410
:1016B000039400681449884224D11448816941F494
:1016C00080418161816901F480410491816941F027
:1016D0000401816180690E4D00F0040004904FF414
:1016E0000070009002200190032003906946284674
:1016F000FEF744FE2815CDE9000469462846029409
:10170000FEF73CFE05B030BD00380140001002403D
:1017100000080140FEE70000F0B500230A24302550
:1017200037261F4611E000BFB4EB107F02D905EB4E
:10173000107C01E006EB107C01F813C001EB430CB8
:1017400000015B1C8CF80170DBB29342ECD3F0BD5E
:10175000094808B5816941F020018161816901F082
:1017600020010091816941F004018161806900F0EC
:101770000400009008BD0000001002400C4810B5A5
:101780000A4901604FF4E1314160002181600C227F
:10179000C160C0E904128161C161FFF751FF0028F7
:1017A00003D0BDE81040FEF7E6BD10BD0038014093
:1017B000BC01002010B500220F49104800F016FDB2
:1017C00008B1FEF7D8FD0E490C4800F0F3FE08B151
:1017D000FEF7D1FD0B49094800F022FB08B1FEF7E6
:1017E000CAFD064800F03CFF002803D0BDE81040C9
:1017F000FEF7C1BD10BD0000000000200002002067
:101800008001002010010020FEE7FEE72DE9F84FDF
:10181000044640F68F7B48F60F7A4FF002094FF4EA
:10182000806874E1B0F8441011F00F063AD030F837
:10183000267039047DD530F8261001EA0B0141F0FD
:10184000800120F8261006EB860004EBC00595F811
:10185000740105F5B47500286CD0E87802286AD0C8
:101860002878226832F8201048F68F73194048F221
:10187000C003194322F820102878D4F800C03CF89F
:101880002010BCF8502049047ED509EBC000111887
:1018900008EB41003CF800008005800D009074D0FA
:1018A0002A89D8E0C9062DD4018801EA0A0141F449
:1018B00000410180216804F12805B1F850202B78FF
:1018C00009EBC300024408EB4200085AC0F30900C8
:1018D0006064E16B0844E06300212046FEF7FBFEF4
:1018E00094F8240000289CD0A869002899D194F885
:1018F0002400216840F08000A1F84C00002084F80A
:10190000240004E1018804F5B4750A0521D5B0F876
:1019100050202B78062101EBC3010A4408EB420159
:10192000405A04F52C71C0F30903EB61EA88206882
:1019300002E0ACE068E07AE001F07EFD2168088812
:1019400000EA0B0040F0800008802046FFF73FFBD4
:10195000DDE00904D5D5018801EA0B0141F08001E1
:1019600001802068B0F850202B78062101EBC301DC
:101970000A4408EB4201405A83059B0DEB6110D0ED
:10198000696971B1EA8801E058E056E0206801F029
:1019900053FDE96968690844686100212046FEF743
:1019A000A3FE2068018809052DD4B0F85010084422
:1019B000296900F20C4051B13E2910D84A08C907E4
:1019C00000D0521C4FF6FF7101EA82210FE001881E
:1019D00021F4F8410180018841F4004107E04A09FF
:1019E000C90600D1521E4FF4004141EA8221018014
:1019F000206801884BF68F72114081F4405148F203
:101A000080021143018082E0D4F800C0BCF850107D
:101A10002A78062000EBC200014408EB41003CF8A4
:101A200000008005800D00901AD0EA8813E03A4645
:101A300029462046FEF7B6FE009011E0062101EB94
:101A4000C000111808EB41003CF800008005800D33
:101A5000009005D06A8903466046696901F0ECFC94
:101A6000E96900980844E861696900980844686178
:101A7000A86918B129690098814204D929782046BB
:101A8000FEF732FE03E02946206801F0BBF9380674
:101A90003DD506EB860004EBC001206830F8262017
:101AA00002EA0A0242F4004220F8262091F82B00B4
:101AB0002831032804D018B1022824D1F80522D4F3
:101AC0002368B3F850200D7809EBC500024408EBF9
:101AD0004200185A8A69C0F3090082420CD9121ACE
:101AE0008A610BD04A6902444A61CA691044C861DC
:101AF000206801F087F90AE000208861E9B22046F9
:101B0000FEF7E9FD03E03A462046FEF7BEFE2068F8
:101B1000B0F8441009043FF585AE0020BDE8F88F09
:101B200070477047FEF720BD30B593B02821684656
:101B3000FEF79AFB14210AA8FEF796FB0024012069
:101B40000F9410941194010412948DE813000490E2
:101B50004FF4E010CDE90810022507956846FFF71D
:101B6000CBFB08B172B6FEE70F20CDE90A054FF4B2
:101B70008060CDE90C4002210AA80E94FFF7D0FA4C
:101B800008B172B6FEE710200F9012940FA8FFF76D
:101B900051FA002801D072B6FEE713B030BD70478D
:101BA00070B5044600680169E26821F440511143B0
:101BB00001612169A0680843616908432168CA6816
:101BC00041F20C639A430243CA6020684169A269EA
:101BD00021F44071114341611E492068884202D1BD
:101BE000FFF744FB01E0FFF731FB00EBC00101EB25
:101BF0000012606864218000B2FBF0F3B3FBF1F3E4
:101C00006FF018067343B2FBF0F5B2FBF0F605EB8C
:101C10008305322303EB0515B5FBF1F5B6FBF1F6B1
:101C200005F0F00505EB0615B2FBF0F6B2FBF0F09F
:101C3000B0FBF1F06FF01802504306EB800003EBAD
:101C40000010B0FBF1F0216800F00F00284488601C
:101C500070BD0000003801402DE9F041D0F8C032DD
:101C6000D0F8B822CAB101EB810500EB850400264B
:101C7000E7693FB103EBC5039B6BB7FBF3F503FBD0
:101C8000157323B1C2F814620020BDE8F08100236F
:101C90001A46E66100F071FCF6E70220F5E770B540
:101CA0000546D0F8B84200F06CFBC4F80C02D5F839
:101CB000B80248B1D5F8BC12D4F80402CA6804F5D9
:101CC00003719047002070BD022070BD70B50446BE
:101CD0000026812100F0A8FA002501212046E562B6
:101CE00000F0A2FA82212046C4F86C5100F09CFA60
:101CF0002564D4F8B80248B1D4F8BC0204F52E74B7
:101D000040688047206800F057FE2560304670BD6F
:101D100010B5D0E9AE4159B194F80002FF2807D0C0
:101D20008B6894F8012221469847FF2084F800022E
:101D3000002010BD0A2101800048704734010020B6
:101D4000202101800048704760010020202101808F
:101D50000048704740010020202101800048704762
:101D6000600100202DE9F04104460026007C4FF47C
:101D70000077012590B3402302228121204600F004
:101D800055FB4023E56202220121204600F04EFB74
:101D90000823032282212046C4F86C5100F046FB40
:101DA0004FF40770256400F009FEC4F8B802F8B1DA
:101DB0000546D4F8BC02006880470020C5F814022C
:101DC000C5F81802207CD5F8042298B140230121DF
:101DD000204600F037FB3046BDE8F081FFE73B4688
:101DE00002228121204600F021FB3B46E562CAE742
:101DF0000126F0E73B46EAE710B5D0F8B81269B122
:101E0000027C002AD1F8042205D04023012100F0F1
:101E100019FB002010BD4FF40073F7E7022010BD3E
:101E200002460220002902D00020C2F8BC127047EE
:101E3000D0F8B802C0F8041200207047D0F8B802F9
:101E4000C0F81022C0F80812002070472DE9FC41AC
:101E50000546D0F8B87200208DF80000ADF80400F7
:101E6000064608780C4610F0600121D020293BD1AD
:101E7000E288AAB10006607807D5D5F8BC128B6855
:101E800039469847E288394626E087F80002A0796B
:101E900087F80102E2883946284600F04FF828E02A
:101EA000D5F8BC12607800228B682146984720E064
:101EB000607820B10A2809D00B2815D110E095F8D8
:101EC0009C02032810D1022201A905E095F89C028A
:101ED000032809D101226946284600F049F808E0A4
:101EE00095F89C02032804D02146284600F01BF8F0
:101EF00002263046BDE8FC8110B5D0F8B422526805
:101F00009047002010BD134610B50A46002100F08E
:101F100099FA002010BD134610B50A46002100F0C2
:101F20002CFB002010BD10B50446802100F00AFBF8
:101F30002046BDE81040002100F004BB10B503238B
:101F4000C0F85C21C0F89432C0F8602113460A46FC
:101F5000002100F077FA002010BD10B50521002304
:101F6000C0F894121A46194600F06CFA002010BD11
:101F700010B50223C261C0F89432026213460A46C9
:101F8000002100F0FAFA002010BD10B50421002352
:101F9000C0F894121A46194600F0EFFA002010BD5E
:101FA00010B50A46024903A000F0F0F8004810BD41
:101FB000C404002057696E55534220436F6E666912
:101FC00067000000122008800048704728000020A9
:101FD00010B50A46024903A000F0D8F8004810BD29
:101FE000C404002057696E55534220496E746572CF
:101FF00066616365000000000420088000487047A7
:102000002400002010B50A46024903A000F0BEF8E3
:10201000004810BDC404002053544D6963726F65BD
:102020006C656374726F6E696373000010B50A4665
:10203000024903A000F0AAF8004810BDC404002023
:1020400053544D33322057696E55534200000000FF
:1020500010B51A2008800A480168001D0468001D98
:102060000068081809D008220649FFF755FB054902
:10207000042210312046FFF74FFB0248801E10BD9E
:10208000E8F7FF1FF6000020F8B504460020ADF881
:10209000000048880D46010A082956D2DFE801F001
:1020A0005504091755554D53D4F8B012207C0A68D1
:1020B00022E0207C02260028D4F8B40205D0C16AB0
:1020C00068468847014646704CE0816AF8E7C0B22E
:1020D00003281ED005DC58B1012810D0022834D1C5
:1020E00013E0042819D005281BD0EE282DD11CE0C0
:1020F000D4F8B002426805E0694690471BE0D4F886
:10210000B00282680AB3207CF6E7D4F8B002C26855
:10211000F8E7D4F8B0020269F4E7D4F8B0024269F3
:10212000F0E7D4F8B0028269ECE7D4F8B402816B2E
:1021300059B168468847014614E0207C28B9D4F894
:10214000B402416BF5E7207C20B129462046FFF719
:10215000EAFEF8BDD4F8B402016B68468847014630
:1021600007204870BDF8000048B1EA8852B18242A9
:1021700000D90246ADF800202046FFF7F9FEE888B6
:102180000028E6D12046FFF700FFF8BD70B5002318
:1021900000281ED00446002502E06D1CEDB2641C30
:1021A0002678002EF9D1022404EB4504148012781D
:1021B000CA545B1C0322CA5400245B1C06E0CA54A8
:1021C0005B1CDAB28C54521CD3B2401C0278002A39
:1021D000F5D170BD01004FF0000004D0012901D0FD
:1021E000022901D0022070470120704710B580B14C
:1021F000D0F8B43213B10023C0F8B43209B1C0F83A
:10220000B012012180F89C12027000F0BFF800208B
:1022100010BD022010BD10B5D0F8C002FEF794FA30
:10222000BDE81040FFF7D6BF10B5D0F8C002FEF7EA
:1022300065FABDE81040FFF7CDBF2DE9F041174624
:10224000044651B1D4F8B40242691AB194F89C0220
:10225000032851D00220BDE8F081D4F89432002543
:1022600004F11400022B03D0042B3AD0C3B33CE09A
:10227000D0E903639E4207D9F11AC1608AB2394698
:102280002046FFF748FE12E08068B0FBF3F103FB45
:10229000110199B9984211D3D4F8981288420DD2FD
:1022A000002211462046FFF736FEC4F8985200235C
:1022B0001A461946204600F0C5F816E0D4F8B402D4
:1022C000C16829B194F89C02032801D120468847AF
:1022D0008021204600F036F92046FFF73EFE04E05C
:1022E000FFE78021204600F02DF994F8A002012894
:1022F00004D184F8A05201E0204690470020AAE7CC
:1023000070B51546044649B1D4F8B40282691AB1D1
:1023100094F89C02032830D0022070BDD4F89412A7
:1023200004F5AA70032902D005291ED027E0D0E9C0
:1023300003218A420BD9531AC3600846834200D353
:1023400003469AB229462046FFF7DDFD17E0D4F890
:10235000B402016929B194F89C02032801D12046F6
:1023600088472046FFF711FE09E000200146C4F827
:102370009402204600F0E6F801E020469047002055
:1023800070BDD0F8C002FEF718BC000010B50446BE
:102390001C481D49C0F8E842C4F8C0020160082189
:1023A00041600221816000218161C1610162FEF70B
:1023B00053FD08B1FDF7DFFF0022D4F8C002182357
:1023C000114604F53074FEF767F958230022802186
:1023D0002068FEF761F9C023002281212068FEF702
:1023E0005BF94FF48873002201212068FEF754F94D
:1023F0004FF48073002282212068FEF74DF90020FF
:1024000010BD0000B4100020005C00400A0601F07E
:102410007F01D0F8C00201EB810100EBC10002D5C1
:1024200090F82A00704790F86A01704710B51C4672
:102430001346D0F8C0022246FEF7C8FBBDE81040A4
:10244000FFF7C8BE10B5D0F8C002FEF7EFFBBDE83D
:102450001040FFF7BFBE70B500220446402311466E
:10246000FFF7E4FF40260125C4F8646133460022EB
:1024700080212046C4F85851FFF7D8FF6662A56155
:1024800084F89C520020C4F894026060C4F8A4024E
:10249000D4F8B80228B1D4F8B4020021426820462A
:1024A0009047002070BD90F89C12042903D190F849
:1024B0009D1280F89C120020704710B590F89C1275
:1024C000032904D1D0F8B412C96901B188470020AA
:1024D00010BD01740020704710B5D0F8C002FEF79F
:1024E00062FDBDE81040FFF775BE70B5044600F50B
:1024F0002A70054600F04AF80120C4F89402B4F8A6
:10250000AE02C4F8980294F8A80210F01F010AD095
:1025100001290DD0022910D000F08001204600F0E2
:1025200011F8002070BD2946204600F09EF8F8E71B
:102530002946204600F0D0F9F3E72946204600F06E
:1025400023F9EEE710B5D0F8C002FEF788FBBDE82E
:102550001040FFF73FBE10B5D0F8C002FEF73EFDB9
:10256000BDE81040FFF736BE90F89C1280F89D122F
:10257000042180F89C120020704710B5D0F8C002EA
:10258000FEF7A6FBBDE81040FFF724BE0A780270F4
:102590004A7842708A78CB7802EB032242800A792B
:1025A0004B7902EB032282808A79C97902EB0121FF
:1025B000C18070470246002011B1C2F8B4127047C2
:1025C0000220704710B5D0F8B42202241AB1126864
:1025D000904700B90024204610BD000070B50E469B
:1025E0001E4D897804462970012931D894F89C023F
:1025F00002280BD003280FD031462046FFF793FC6A
:1026000029782046BDE87040FFF776BCD9B1032099
:10261000616084F89C0209E071B16068884212D060
:10262000C1B22046FFF768FC297861602046FFF7B9
:10263000C9FF02280CD006E0022084F89C02204644
:102640006160FFF759FC2046BDE87040FFF79DBC74
:1026500031462046BDE87040FFF765BC30010020E0
:1026600010B5FFF778FF002010BD2DE9F0414A7842
:102670000026A02A08D00B7813F060030CD0202B82
:1026800005D0402B73D102E000F057F971E0D0F88B
:10269000B422926890476CE0002301250A2A66D292
:1026A000DFE802F0405D6557650805652C29FFF7F6
:1026B000EBFC5EE004468888D8B9C888C8B9488869
:1026C000802816D200F07F0794F89C02032810D0CF
:1026D00084F89E7239462046FFF7FEFE2046FFF73B
:1026E00054FC1FB1022084F89C0242E084F89C5202
:1026F0003FE020463BE0FFF771FF3AE0CA88012A3D
:1027000035D190F89C22012A04D0022A02D0032A53
:102710002DD104E0012200F10801836016E00122BE
:10272000011D13E090F89C22012A03D0022A01D057
:10273000032A1CD1CA88022A19D1C560D0F8A41274
:1027400009B10321C160022200F10C01FFF710FC66
:102750000FE0498801290CD1C0F8A45211E090F88B
:102760009C22012A08D0022A06D0032A04D0FFF7AF
:10277000DAFB3046BDE8F08149880129F9D1C0F87B
:10278000A432FFF702FCF4E72DE9F0410A460446C3
:1027900010780027097910F060030AD0202B01D0AF
:1027A000402B50D1D4F8B402114683682046984794
:1027B0008FE0C0F34110012806D05078D0B3012833
:1027C0002AD003283FD107E0D4F8B4021146836829
:1027D0002046BDE8F041184794F89C02022802D038
:1027E000032872D10AE071B380296ED02046FFF72A
:1027F000A9FE80212046FFF7A5FE6AE0508838B97F
:1028000031B1802904D0D08810B92046FFF79AFE54
:102810002046FFF7BAFB5CE094F89C020228E2D065
:10282000032852D1508898BB4806F1D02046FFF7C4
:10283000F2FCEDE7FFE794F89C020026022803D0A3
:10284000032842D112E040E009B180293DD10806B9
:1028500001F07F0000EB800004EB800101D5143112
:1028600001E001F5AA7102220E602AE0080601F0DB
:102870000F0000EB800004EB80000AD5806920B3D4
:1028800001F07F0000EB800004EB800514350BE0C5
:102890001FE0D0F85801C0B101F07F0000EB8000CC
:1028A00004EB800505F5AA7541B1802906D02046C4
:1028B000FFF7ACFD10B10120286000E02E6002227D
:1028C00029462046FFF754FB03E011462046FFF758
:1028D0002AFB3846BDE8F08170B506460878002529
:1028E0000C4610F0600003D0202801D0402807D10A
:1028F00096F89C02012808D0022806D0032804D0AC
:102900003046FFF710FB002070BD207901280BD85E
:10291000D6F8B4028268304690470546E0882843DE
:1029200002D13046FFF731FB20782146C128E7D19C
:10293000304600F002F8284670BD38B50446888855
:102940000D46042805D0052807D02046FFF7EBFAEE
:1029500038BDD4F8B002C16902E0D4F8B002016A0F
:10296000684688470146BDF800000028F0D0EA8894
:10297000002AEDD0824200D90246ADF80020204660
:10298000FFF7F6FA38BD00002821018000487047A3
:102990003C0000208E210180004870476400002028
:1029A00010B5024602490348FFF7F0FB004810BD8E
:1029B000C4040020D234000870470000004870476B
:1029C000940E00202DE9F0470C78002630F82430D2
:1029D00048F68F121340CA78002A7DD0012A7CD095
:1029E000022A02D0032A7FD0012648F28002134334
:1029F00020F824300D7830F8254048F68F731C40BD
:102A00002C43144320F825400D7B48F2C00C48F6B7
:102A1000BF744CF280074BF68F79EDB391F80080CC
:102A2000C24630F8285048F280181D4045EA080593
:102A300020F82A50B0F8505091F80080054405EB7A
:102A40000815B1F8088028F00108A5F80084B0F84E
:102A5000505091F80080054405EB0815B1F80A8044
:102A600028F00108A5F808844D78002D0D7830F87D
:102A700025804FEA48487DD0B8F1000F07DA30F8DA
:102A8000258008EA030848EA070820F825800F781F
:102A900030F827506D0600E02CE006D530F82750BE
:102AA0001D4045EA0C0520F82750CB780D78012B06
:102AB00030F8253003EA040301D083F020031343E8
:102AC00020F825300B7830F8231001EA0901114372
:102AD00020F82310304602E003E008E004E0BDE8FF
:102AE000F08743F4007380E743F4C0637DE743F469
:102AF00080637AE74D782DB3B0F850500F780544D5
:102B000005EB0715CF8827F00107A5F800740F78AB
:102B100030F827506D0606D530F827501D4045EA9D
:102B20000C0520F82750CB78012B06D00B7830F815
:102B30002310214081F02001C9E70B7830F82310E1
:102B40002140C4E7B0F850400D78044404EB05146C
:102B5000CD8825F00105A4F80854B0F850400D7850
:102B6000044404EB05140D6904F20C4475B13E2DC8
:102B700014D800E030E04FEA550CED0701D00CF11D
:102B8000010C4FF6FF7505EA8C2511E0258825F428
:102B9000F8452580258845F4004509E04FEA551C95
:102BA000ED0601D1ACF1010C4FF4004545EA8C254E
:102BB00025800D7830F82540640405D530F825408F
:102BC0001C403C4320F825400B7830F8231001EAE4
:102BD000090181F440517AE7B8F1000F07DA30F8C3
:102BE000258008EA030848EA070820F825800F78BE
:102BF00030F827506D0606D530F827501D4045EABD
:102C00000C0520F827500D7830F8253003EA090329
:102C100083F44053134320F825308EE7002070479B
:102C20002DE9F04391F80C804F780A7848F6BF7C84
:102C30004BF68F7948F2800348F2C0054CF28006CB
:102C400048F68F74B8F1000F28D0002F30F82270AA
:102C50004FEA474748D0002F05DA30F82270274066
:102C6000374320F822700A7830F822707F0605D5A5
:102C700030F8227027402F4320F822700D7830F86A
:102C800025202240324320F825200C7830F82420DB
:102C900002EA0C021A4320F824201AE07FB130F82F
:102CA0002260760605D530F8226026402E4320F8B3
:102CB00022600A7830F8221001EA0C010EE030F8A8
:102CC00022506D0405D530F822502540354320F8B8
:102CD00022500A7830F8221001EA0901194320F83D
:102CE00022100020BDE8F083002F05DA30F82270B2
:102CF0002740374320F822700A7830F822607606A1
:102D000005D530F8226026402E4320F822600E7848
:102D100030F8262022402A4320F826200C7830F86C
:102D2000242002EA09021A4320F82420C1E70020E7
:102D3000704700207047012120F8401F00210180CA
:102D4000818001820846704730F8401F21F43F41DE
:102D50000180002070470020704730B50A7BB2BB6D
:102D60004A7848F68F7548F28004C2B10B7830F883
:102D70002320520607D530F823202A4048F2C00508
:102D80002A4320F82320CA78012A20D00A7830F874
:102D9000221048F6BF73194081F0200114E00A7830
:102DA00030F822305B0407D530F822302B404CF24B
:102DB00080052B4320F822300A7830F822104BF699
:102DC0008F73194081F44051214320F822100020D4
:102DD00030BD10B54A780978002A48F2800330F8EF
:102DE000212005D048F6BF74224082F0100204E092
:102DF0004BF68F74224082F480521A4320F821202F
:102E0000002010BD2DE9F0470E464B78097B0446A3
:102E10004FF0000948F68F7248F2800A4FF6FF77AC
:102E20004FF40048012B09D000296ED0F078022819
:102E30006CD001286BD00120BDE8F087B5693069FE
:102E4000854200D90546C9B1F17848F280130229BC
:102E500023D0317834F821001040184324F82100A1
:102E6000306A401B3062307834F82010490671789F
:102E70007ED500297DD001297CD03FE1ABB2F2881C
:102E80002046716900F0F6FAB4F850003178204419
:102E900000EB0110A0F80454EAE0316A81426AD9DB
:102EA000317834F821001040184324F82100306AAA
:102EB000401B3062307834F82010490671786CD5A8
:102EC00011B1012924D02AE0B4F85010214401EBBB
:102ED000001000F20C404DB13E2D0FD86908EA07F2
:102EE00000D0491C07EA8121018018E0018821F403
:102EF000F8410180018841F40041F5E76909EA06DB
:102F000000D1491E48EA8121EEE79CE1BCE126E2BE
:102F1000B4F85020111901EB0010A0F80C5472897C
:102F2000ABB22046716900F0A5FA7069284470615F
:102F30003169306A884202D9401B306202E005469E
:102F4000C6F82090707800287CD1B4F85000317811
:102F5000204400EB011000F204406DB13E2D13D867
:102F60006908EA0700D0491C07EA8121018012E0C4
:102F700001E19BE0BBE084E0018821F4F84101809D
:102F8000018841F40041F1E76909EA0600D1491ED0
:102F900048EA8121EAE7328965E011B1012921D0AF
:102FA00027E0B4F85010214401EB001000F2044077
:102FB0004DB13E2D0FD86908EA0700D0491C07EA39
:102FC0008121018015E0018821F4F8410180018808
:102FD00041F40041F5E76909EA0600D1491E48EAD3
:102FE0008121EEE7B4F85010214401EB0010A0F865
:102FF00004543289ABB22046716900F03BFA706923
:10300000284470613169306A884202D9401B3062BD
:1030100002E00546C6F82090707800287ED1B4F80A
:1030200050003178204400EB011000F20C4055B103
:103030003E2D10D86908EA0700D0491C07EA812113
:1030400001800FE072E0018821F4F84101800188DD
:1030500041F40041F4E76909EA0600D1491E48EA53
:103060008121EDE77289ABB22046716900F002FA66
:10307000317834F8210048F6BF72104080F03000FB
:10308000C0E1327834F8220048F68F63184040EAF5
:103090000A0024F82200B4F850003278204400EBF3
:1030A00002108BB2A0F804343289DDE7B4F8501076
:1030B000214401EB001000F20C404DB13E2D0FD821
:1030C0006908EA0700D0491C07EA8121018015E060
:1030D000018821F4F8410180018841F40041F5E7BD
:1030E0006909EA0600D1491E48EA8121EEE7B4F8F1
:1030F0005020111901EB0010A0F80C547289ABB2EA
:103100002046716900F0B6F9706928447061316930
:10311000306A884203D9401B306203E06EE0054606
:10312000C6F82090002DA3D0707858B101287FF404
:103130001EAFB4F850003178204400EB0110A0F825
:10314000045428E7B4F850003178204400EB011112
:1031500001F204413E2D06D86808EA0700D0401C61
:1031600007EA802005E06809EA0600D1401E48EA27
:10317000802008800FE711B1012921D027E0B4F8A1
:103180005010214401EB001000F204404DB13E2DDF
:103190000FD86908EA0700D0491C07EA812101809D
:1031A00015E0018821F4F8410180018841F40041D3
:1031B000F5E76909EA0600D1491E48EA8121EEE7F0
:1031C000B4F85010214401EB0010A0F804543289E7
:1031D000ABB22046716900F04DF970692844706106
:1031E0003169306A884202D9401B306202E00546EC
:1031F000C6F82090002D96D0707858B101287FF441
:1032000020AFB4F850100819317800EB0110A0F885
:103210000C5427E7B4F850003178204400EB01113A
:1032200001F20C413E2D06D86808EA0700D0401C88
:1032300007EA802005E06809EA0600D1401E48EA56
:10324000802008800EE7B1693069814202D9091AED
:10325000B161B5E00846C6F81890B1E0088820F4DE
:10326000F8400880088840F400400BE03E2875D8FC
:103270004208C00700D0521C07EA822002E000BFCB
:1032800048EA82200880B5E093B9B4F8500031785C
:10329000204400EB0110316900F2044069B13E297D
:1032A00013D84B08C90700D05B1C07EA83210180B3
:1032B000707888B1012832D03AE0018821F4F841D1
:1032C0000180018841F40041F1E74B09C90600D1B2
:1032D0005B1E48EA8321EAE7B4F8500031782044C5
:1032E00000EB0110316900F20C4049B13E290FD8C2
:1032F0004B08C90700D05B1C07EA8321018017E057
:10330000018821F4F8410180018841F40041F5E78A
:103310004B09C90600D15B1E48EA8321EEE7B4F8E9
:1033200050100819317800EB0110318AA0F80C1404
:10333000F069A8B3317834F82100430401D543067D
:1033400003D444F24003184254D134F82100104011
:1033500048F2C002104324F821004BE03CE0B16980
:103360003069814202D9091AB16102E00846C6F803
:1033700018908BB9B4F850103278214401EB021147
:1033800001F2044168B13E2813D84208C30700D0B7
:10339000521C07EA82220A80717889B1012921D062
:1033A00028E00A8822F4F8420A800A8842F400429F
:1033B000F1E74209C30600D1521E48EA8222EAE739
:1033C000B4F850103278214401EB021101F20C41A3
:1033D00000287FF44BAF41E74209C0067FF450AFAD
:1033E000521E4DE7B4F850201119327801EB02114A
:1033F000A1F80C04317834F821004BF68F7210409C
:1034000080F4405040EA0A0024F82100002013E52F
:103410000021A0F844104FF43F41A0F840100020D4
:10342000704700000148FDF76DBC0000B41000209B
:10343000B0F844007047000010B500EB42005C0893
:1034400000F5806009D000BF30F8042B01F8012B93
:10345000120A01F8012B641EF6D1DA0701D00088A8
:10346000087010BD0020704711B98021A0F84C10E1
:103470000020704710B55B1C00EB42005B0800F5B4
:10348000806009D011F8012B11F8014B42EA0422A7
:1034900020F8042B5B1EF5D110BDFEE70907090ECD
:1034A000002804DB00F1E02080F80014704700F0F1
:1034B0000F0000F1E02080F8141D7047FDF75CF864
:1034C000FEF732FBFEF744F9FEF758F9FEF772F902
:1034D000FEE74D534654313030A00000000000009C
:1034E00000000102030406070809000000000102B1
:1034F000030400001435000800000020BC01000097
:10350000280100082C360008BC01002044160000E9
:103510008401000813C51F1B08F9041305201B08AC
:103520002D041A51041AA1101AD1041389291B0859
:1035300095041704030904120132021640E407E45B
:10354000072602010203014228130104190B710727
:103550001057494E5553423A8E281A05282A840995
:1035600031122812441265127612691A6308124940
:10357000126E1A7408127212663A611212471A55C4
:10358000163244324E127B1231123312451A420661
:1035900012361A30081A2D041A43161A450A1A341C
:1035A000143A43141A41083A380A12451A462C1A9A
:1035B000441212341A37121A343612361232527D2D
:1035C000031A1A031339031B0835041A31041A5D50
:1035D0000429AE82105324F4130A0632022A401C36
:1035E000140902202008010104C03209043302FF3B
:1035F0001D07050102202C070581070914202A4018
:10360000072A810713651D1408CD1C14084D1E429E
:10361000081A11101A59101A9F04C11A4D182A417C
:0C3620001C19041A350413A1290200082B
:04000005080000ED02
:00000001FF
